:020000040000FA
:04000000F8EF0DF018
:10060000003F065B4F666D7D077F6F777C395E79B3
:1006100071554C44525358414259734E6F20636890
:10062000616F20202020202020202000506F757333
:10063000616E646F2020202020202020004465630C
:100640006F6C616E646F20202020202020004D758B
:1006500069746F20616C746F20202020202000447A
:10066000657374696E6F3A2047616C65616F0056FF
:100670006F6F206465206372757A6569726F004ED2
:100680006F206368616F0000000E3B6E000E3A6ED3
:1006900020EE3CF010EE21F00F0EDBCFE3FFE8067A
:1006A000FCE220EE4CF010EE1AF0060EDBCFE3FF7A
:1006B000E806FCE2000E366E000E376E000E356E58
:1006C000000E336E000E396E100E386E25EC0BF0F6
:1006D00013EC0EF0D2EC0CF0C5EC0EF077EC0DF054
:1006E000000E956E000E836E000E106E000E0F6EE3
:1006F000000E126E000E116EDBEC0DF05F0E0F6E31
:10070000060E106EFDEC0CF0000E106E010E0F6E5A
:10071000000E126E000E116EDBEC0DF07F0E0F6EF0
:10072000060E106EFDEC0CF089EF05F0A2EC09F05E
:10073000DEEC0EF03850011809E139500218D8B437
:10074000A4EF03F0A6EF03F027EF05F0DEEC0EF0C8
:1007500001C038F002C039F038A0B1EF03F0B3EFB8
:1007600003F0C5EF03F03BBEC1EF03F01D0E3A5C92
:10077000250E3B58D8B0BFEF03F0C1EF03F0C5EF33
:1007800003F0F40E3A26010E3B2238A4CAEF03F020
:10079000CCEF03F0DDEF03F03BBED7EF03F03B50AF
:1007A00008E13A04D8A0D7EF03F0D9EF03F0DDEF6A
:1007B00003F00C0E3A26FE0E3B2238A2E2EF03F0C5
:1007C000E4EF03F0E6EF03F0000E336E38A6EBEF34
:1007D00003F0EDEF03F0EFEF03F0010E336E37504F
:1007E000156E166AD89015361636020E1526000EAE
:1007F0001622210E1524D96E000E1620DA6EDE5058
:100800003A5C3B50800A196EDE50800A1958D8A015
:100810000CEF04F00EEF04F011EF04F0372A29EF8B
:1008200004F03750020D210EF324D96E000EF4208F
:10083000DA6EDE503A5C3B50800A176EDE50800A5A
:100840001758D8B026EF04F028EF04F029EF04F091
:1008500037063BBE35EF04F0700E3A5C170E3B587E
:10086000D8A035EF04F037EF04F059EF04F03BBEA9
:1008700045EF04F0580E3A5C1B0E3B58D8B043EFDE
:1008800004F045EF04F059EF04F0000E106E010E75
:100890000F6E000E126E000E116EDBEC0DF06F0E7F
:1008A0000F6E060E106EFDEC0CF0000E346E010E95
:1008B000366E3BBE67EF04F0700E3A5C170E3B5885
:1008C000D8B065EF04F067EF04F08DEF04F03BBEA5
:1008D00073EF04F03B5009E1020E3A5CD8A073EFCD
:1008E00004F075EF04F08DEF04F03650D8A47BEFE0
:1008F00004F07DEF04F08DEF04F0000E106E010E99
:100900000F6E000E126E000E116EDBEC0DF03D0E40
:100910000F6E060E106EFDEC0CF03BBE9BEF04F06C
:10092000700E3A5C170E3B58D8B099EF04F09BEF6D
:1009300004F0C1EF04F03BBEA7EF04F03B5009E127
:10094000020E3A5CD8A0A7EF04F0A9EF04F0C1EFC3
:1009500004F03650D8B4AFEF04F0B1EF04F0C1EFBB
:1009600004F0000E106E010E0F6E000E126E000EDF
:10097000116EDBEC0DF02C0E0F6E060E106EFDEC02
:100980000CF03BBECDEF04F0590E3A5C1B0E3B5809
:10099000D8A0CDEF04F0CFEF04F0EFEF04F03BBEB2
:1009A000DDEF04F0100E3A5C270E3B58D8B0DBEFB9
:1009B00004F0DDEF04F0EFEF04F0000E106E010E16
:1009C0000F6E000E126E000E116EDBEC0DF04E0E6F
:1009D0000F6E060E106EFDEC0CF0640E346E3A5085
:1009E0003B10D8A4F6EF04F0F8EF04F00AEF05F09E
:1009F000000E106E010E0F6E000E126E000E116EC4
:100A0000DBEC0DF01B0E0F6E060E106EFDEC0CF005
:100A1000000E366E3BBE11EF05F00FEF05F015EF3F
:100A200005F0000E3B6E000E3A6E3BBE21EF05F066
:100A3000100E3A5C270E3B58D8A021EF05F023EFAB
:100A400005F027EF05F0270E3B6E0F0E3A6E010EF4
:100A5000356E9EEF05F0030E0F6E3AC009F03BC0F5
:100A60000AF0000E0C6E0A0E0B6E7FEC0BF00950B4
:100A7000A6EC0CF0020E0F6E000E046E0A0E036E52
:100A80003AC001F03BC002F0C3EC0AF001C009F02B
:100A900002C00AF0000E0C6E0A0E0B6E7FEC0BF01B
:100AA0000950A6EC0CF0010E0F6E000E046E640EE1
:100AB000036E3AC001F03BC002F0C3EC0AF001C083
:100AC00009F002C00AF0000E0C6E0A0E0B6E7FECED
:100AD0000BF00950A6EC0CF0000E0F6E030E046E26
:100AE000E80E036E3AC001F03BC002F0C3EC0AF01E
:100AF00001C009F002C00AF0000E0C6E0A0E0B6E67
:100B00007FEC0BF00950A6EC0CF0000E356E9EEF5A
:100B100005F03550156E166A1650000AD8B493EFDA
:100B200005F085EF05F01550000AD8B496EF03F0F4
:100B3000010AD8B42BEF05F085EF05F03350D8A4A7
:100B4000A4EF05F0A6EF05F0AAEF05F037EC08F0EA
:100B5000B2EF05F01A0E3724D96EDA6A000EDA22E7
:100B6000DF50836E000E026E000E016E28EC0DF059
:100B700001C031F002C032F03BBEC8EF05F0590EA3
:100B80003A5C1B0E3B58D8A0C8EF05F0CAEF05F041
:100B9000DAEF05F031C001F032C002F0000E046E51
:100BA000640E036EC3EC0AF001503A5E02503B5AE9
:100BB000DCEF05F0000E346E345011EC0CF0000E3A
:100BC000026E140E016E47EC0CF089EF05F000EF99
:100BD00000F002BEF7EF05F0025007E1080E015CDD
:100BE000D8B0F5EF05F0F7EF05F021EF06F0035070
:100BF0000410D8B4FEEF05F000EF06F010EF06F099
:100C000001C005F0010E066E052A09EF06F0D89026
:100C10000636052E07EF06F0065080120FEF07F09C
:100C200001C005F0010E066E052A19EF06F0D890F6
:100C30000636052E17EF06F00650FF0A80160FEF56
:100C400007F002BE2FEF06F0025007E1100E015C24
:100C5000D8B02DEF06F02FEF06F05DEF06F0F80E9E
:100C60000126FF0E022203500410D8B43AEF06F01A
:100C70003CEF06F04CEF06F001C005F0010E066EE9
:100C8000052A45EF06F0D8900636052E43EF06F00C
:100C9000065081120FEF07F001C005F0010E066E3D
:100CA000052A55EF06F0D8900636052E53EF06F0CC
:100CB0000650FF0A81160FEF07F002BE6BEF06F039
:100CC000025007E1180E015CD8B069EF06F06BEF37
:100CD00006F099EF06F0F00E0126FF0E02220350F7
:100CE0000410D8B476EF06F078EF06F088EF06F03F
:100CF00001C005F0010E066E052A81EF06F0D890BE
:100D00000636052E7FEF06F0065082120FEF07F031
:100D100001C005F0010E066E052A91EF06F0D8908D
:100D20000636052E8FEF06F00650FF0A82160FEFEB
:100D300007F002BEA7EF06F0025007E1200E015CAB
:100D4000D8B0A5EF06F0A7EF06F0D5EF06F0E80E55
:100D50000126FF0E022203500410D8B4B2EF06F0B1
:100D6000B4EF06F0C4EF06F001C005F0010E066E08
:100D7000052ABDEF06F0D8900636052EBBEF06F02B
:100D8000065083120FEF07F001C005F0010E066E4A
:100D9000052ACDEF06F0D8900636052ECBEF06F0EB
:100DA0000650FF0A83160FEF07F002BEE3EF06F0CE
:100DB000025007E1280E015CD8B0E1EF06F0E3EF46
:100DC00006F00FEF07F0E00E0126FF0E022203509F
:100DD0000410D8B4EEEF06F0F0EF06F000EF07F0E5
:100DE00001C005F0010E066E052AF9EF06F0D89055
:100DF0000636052EF7EF06F0065084120FEF07F0C7
:100E000001C005F0010E066E052A09EF07F0D89023
:100E10000636052E07EF07F00650FF0A841612006B
:100E200002BE1EEF07F0025007E1080E015CD8B0C9
:100E30001CEF07F01EEF07F048EF07F00350041017
:100E4000D8B425EF07F027EF07F037EF07F001C020
:100E500005F0010E066E052A30EF07F0D890063631
:100E6000052E2EEF07F00650921236EF08F001C063
:100E700005F0010E066E052A40EF07F0D890063601
:100E8000052E3EEF07F00650FF0A921636EF08F0E7
:100E900002BE56EF07F0025007E1100E015CD8B019
:100EA00054EF07F056EF07F084EF07F003500410FB
:100EB000D8B45DEF07F05FEF07F071EF07F001C006
:100EC00005F0F80E0526010E066E052A6AEF07F0FA
:100ED000D8900636052E68EF07F00650931236EFCD
:100EE00008F001C005F0F80E0526010E066E052A71
:100EF0007CEF07F0D8900636052E7AEF07F0065003
:100F0000FF0A931636EF08F002BE92EF07F0025088
:100F100007E1180E015CD8B090EF07F092EF07F0F0
:100F2000C0EF07F003500410D8B499EF07F09BEF1F
:100F300007F0ADEF07F001C005F0F00E0526010E39
:100F4000066E052AA6EF07F0D8900636052EA4EF08
:100F500007F00650941236EF08F001C005F0F00ECD
:100F60000526010E066E052AB8EF07F0D890063662
:100F7000052EB6EF07F00650FF0A941636EF08F07C
:100F800002BECEEF07F0025007E1200E015CD8B0A0
:100F9000CCEF07F0CEEF07F0FCEF07F003500410A2
:100FA000D8B4D5EF07F0D7EF07F0E9EF07F001C0AD
:100FB00005F0E80E0526010E066E052AE2EF07F0A1
:100FC000D8900636052EE0EF07F00650951236EF62
:100FD00008F001C005F0E80E0526010E066E052A90
:100FE000F4EF07F0D8900636052EF2EF07F0065022
:100FF000FF0A951636EF08F002BE0AEF08F002501D
:1010000007E1280E015CD8B008EF08F00AEF08F0FD
:1010100036EF08F003500410D8B411EF08F013EFC6
:1010200008F025EF08F001C005F0E00E0526010EDE
:10103000066E052A1EEF08F0D8900636052E1CEF26
:1010400008F00650961236EF08F001C005F0E00EE9
:101050000526010E066E052A30EF08F0D8900636F8
:10106000052E2EEF08F00650FF0A96161200000E0D
:10107000026E180E016E000E046E000E036EE9EC97
:1010800005F0000E026E190E016E000E046E000EC9
:10109000036EE9EC05F0000E026E1A0E016E000EF2
:1010A000046E000E036EE9EC05F0000E026E1B0EDE
:1010B000016E000E046E000E036EE9EC05F0000EEA
:1010C000086E000E076E50EC0DF0CFEF08F0010E29
:1010D0005C24F66EF76A060EF7220800F550076EDC
:1010E000086A50EC0DF0000E026E180E016E000E34
:1010F000046E010E036EE9EC05F0010E5D6EECEF7F
:1011000008F0010E5B24F66EF76A060EF72208005F
:10111000F550076E086A50EC0DF0000E026E190EC5
:10112000016E000E046E010E036EE9EC05F0020E76
:101130005D6EECEF08F0010E5A24F66EF76A060EAB
:10114000F7220800F550076E086A50EC0DF0000E0B
:10115000026E1A0E016E000E046E010E036EE9ECB3
:1011600005F0030E5D6EECEF08F0010E5924F66EEB
:10117000F76A060EF7220800F550076E086A50EC71
:101180000DF0000E026E1B0E016E000E046E010EBD
:10119000036EE9EC05F0000E5D6EECEF08F05D50BB
:1011A0000A6E0B6A0B50000AD8B4D9EF08F0CBEFE7
:1011B00008F00A50000AD8B467EF08F0010AD8B462
:1011C00081EF08F0030AD8B49BEF08F0010AD8B405
:1011D000B5EF08F0CBEF08F0120002BEFBEF08F00D
:1011E000025007E1080E015CD8B0F9EF08F0FBEF00
:1011F00008F00FEF09F001C003F0010E046E032A9E
:1012000004EF09F0D8900436032E02EF09F00450E1
:101210008014056E0550016E026AA1EF09F002BE4E
:101220001DEF09F0025007E1100E015CD8B01BEF72
:1012300009F01DEF09F033EF09F001C003F0F80EDB
:101240000326010E046E032A28EF09F0D890043615
:10125000032E26EF09F004508114056E0550016E2F
:10126000026AA1EF09F002BE41EF09F0025007E166
:10127000180E015CD8B03FEF09F041EF09F057EFCD
:1012800009F001C003F0F00E0326010E046E032ADC
:101290004CEF09F0D8900436032E4AEF09F00450C1
:1012A0008214056E0550016E026AA1EF09F002BEBC
:1012B00065EF09F0025007E1200E015CD8B063EF42
:1012C00009F065EF09F07BEF09F001C003F0E80ECB
:1012D0000326010E046E032A70EF09F0D89004363D
:1012E000032E6EEF09F004508314056E0550016E55
:1012F000026AA1EF09F002BE89EF09F0025007E18E
:10130000280E015CD8B087EF09F089EF09F09FEF54
:1013100009F001C003F0E00E0326010E046E032A5B
:1013200094EF09F0D8900436032E92EF09F00450A0
:101330008414056E0550016E026AA1EF09F0016880
:1013400002681200000E566E000E556E000E0E6EF4
:10135000000E0D6E0EBEB6EF09F00E5009E1050E3F
:101360000D5CD8A0B6EF09F0B8EF09F0BAEF09F0BC
:101370001BEF0AF00DC00AF0030E0A26010E0B6ED9
:10138000000E0C6E0A2AC8EF09F0D8900B360C3606
:101390000A2EC5EF09F00BC007F00CC008F050ECA6
:1013A0000DF0000E026E0A0E016EEDEC08F0015019
:1013B0000210D8B4DEEF09F0E0EF09F0F3EF09F026
:1013C0000DC00AF0010E0B6E000E0C6E0A2AECEF37
:1013D00009F0D8900B360C360A2EE9EF09F00B50C5
:1013E00055120C505612000E026E090E016EEDECF5
:1013F00008F001500210D8B400EF0AF002EF0AF032
:1014000017EF0AF00DC00AF0050E0A26010E0B6E4A
:10141000000E0C6E0A2A10EF0AF0D8900B360C362C
:101420000A2E0DEF0AF00B5055120C5056120D4AB1
:101430000E2AAAEF09F05550531807E156505418D8
:10144000D8A425EF0AF027EF0AF02AEF0AF05E068B
:1014500030EF0AF0010E5E6E55C053F056C054F0E6
:101460005E50D8A436EF0AF038EF0AF03CEF0AF0ED
:1014700053C057F054C058F01200000E0A6E08BE58
:1014800046EF0AF044EF0AF050EF0AF0081E071E7C
:10149000061E056C000E062207220822010E0A6EA7
:1014A00004BE57EF0AF055EF0AF061EF0AF0041E90
:1014B000031E021E016C000E022203220422010EF2
:1014C0000A1A000E0B6E000E0C6E000E0D6E000E52
:1014D0000E6E0550061007100810D8B472EF0AF00F
:1014E00074EF0AF0AAEF0AF0010E096E7EEF0AF01F
:1014F000D8900536063607360836092A08AE83EF37
:101500000AF085EF0AF078EF0AF0D8900B360C3627
:101510000D360E360550015C065002580750035830
:1015200008500458D8A097EF0AF099EF0AF0A2EFFC
:101530000AF00550015E0650025A0750035A08503F
:10154000045A0B80D8900832073206320532092E31
:1015500085EF0AF00A50D8B4B0EF0AF0B2EF0AF003
:10156000BAEF0AF00E1E0D1E0C1E0B6C000E0C22A4
:101570000D220E220BC001F00CC002F00DC003F0D2
:101580000EC004F01200000E066E04BECCEF0AF08E
:10159000CAEF0AF0D2EF0AF0036C041ED8B0042A96
:1015A000010E066E02BED9EF0AF0D7EF0AF0DFEFA8
:1015B0000AF0016C021ED8B0022A010E061A000EB3
:1015C000086E000E076E03500410D8B4EAEF0AF05C
:1015D000ECEF0AF014EF0BF0010E056EF4EF0AF0D9
:1015E000D89003360436052A04AEF9EF0AF0FBEF73
:1015F0000AF0F0EF0AF0D890073608360350015C85
:1016000004500258D8A007EF0BF009EF0BF00EEFD3
:101610000BF00350015E0450025A0780D890043248
:101620000332052EFBEF0AF00650D8B41AEF0BF088
:101630001CEF0BF020EF0BF0076C081ED8B0082A47
:1016400007C001F008C002F01200000E026E1C0E6E
:10165000016E000E046E000E036E10EC07F0000E1B
:10166000026E1D0E016E000E046E000E036E10EC75
:1016700007F0BCEC0DF0000E026E0F0E016E2CECAC
:101680000EF0000E0B6E000E0A6E030E94EC0EF0C0
:10169000000E026E050E016E2CEC0EF0000E0B6EAD
:1016A000000E0A6E030E94EC0EF0000E026EA00EF9
:1016B000016EE3EC0EF0000E0B6E000E0A6E030ED0
:1016C00094EC0EF0000E026EA00E016EE3EC0EF034
:1016D000000E0B6E000E0A6E020E94EC0EF0000E61
:1016E000026E0A0E016E2CEC0EF0280EB6EC0EF017
:1016F0000C0EB6EC0EF0010EB6EC0EF01200000E61
:101700000E6E0ABE88EF0BF086EF0BF08EEF0BF03B
:10171000096C0A1ED8B00A2A010E0E6E0CBE95EF97
:101720000BF093EF0BF099EF0BF00B6C0C1ED8B095
:101730000C2A0B500C10D8B4A0EF0BF0A2EF0BF05A
:10174000C6EF0BF0010E0D6EAAEF0BF0D8900B3622
:101750000C360D2A0CAEAFEF0BF0B1EF0BF0A6EF8D
:101760000BF00B50095C0C500A58D8A0BAEF0BF0E4
:10177000BCEF0BF0C0EF0BF00B50095E0C500A5A97
:10178000D8900C320B320D2EB1EF0BF00E50D8B4B6
:10179000CCEF0BF0CEEF0BF0D2EF0BF0096C0A1E82
:1017A000D8B00A2A09C009F00AC00AF01200000ED7
:1017B000066E000E056E03500410D8B4E2EF0BF075
:1017C000E4EF0BF00CEF0CF0010E076EECEF0BF0FA
:1017D000D89003360436072A04AEF1EF0BF0F3EF8E
:1017E0000BF0E8EF0BF0D890053606360350015C9D
:1017F00004500258D8A0FFEF0BF001EF0CF006EFF9
:101800000CF00350015E0450025A0580D890043257
:101810000332072EF3EF0BF005C001F006C002F013
:1018200012000A6E010ECB24016E026A000E022223
:101830000AC003F0046A6EEC0EF001C00BF002C0A7
:101840000CF00BC001F00CC002F0000E046E190E7B
:10185000036ED7EC0BF001C00BF002C00CF0FF0ED2
:101860000B16030E0C160BC008F00CC009F0D89034
:1018700009320832D890093208320850BB6E0BC0CA
:1018800008F0030E08160838F00BBA121200000E0A
:10189000046E000E036E6DEF0CF0000E056E280E48
:1018A000056455EF0CF057EF0CF059EF0CF06BEFAF
:1018B0000CF0000E066E020E066461EF0CF063EF92
:1018C0000CF065EF0CF068EF0CF0062A5BEF0CF003
:1018D000052A4FEF0CF0034A042A0150035C025022
:1018E0000458D8A076EF0CF078EF0CF04DEF0CF028
:1018F00012000D6E0DC00CF00C3A0F0E0C160C50B1
:10190000076E086A50EC0DF0000E026E1D0E016E9F
:101910000AC003F00BC004F0E9EC05F09BEC0DF0FD
:101920000DC00CF00F0E0C160C50076E086A50EC30
:101930000DF0000E026E1D0E016E0AC003F00BC00A
:1019400004F0E9EC05F09BEC0DF01200106E0F5066
:10195000D8A4ADEF0CF0AFEF0CF0B1EF0CF010C06D
:101960005CF00F04D8A4B7EF0CF0B9EF0CF0BBEFAC
:101970000CF010C05BF0020E0F18D8A4C2EF0CF0F0
:10198000C4EF0CF0C6EF0CF010C05AF0030E0F18A5
:10199000D8A4CDEF0CF0CFEF0CF0D1EF0CF010C0CD
:1019A00059F01200000E026E180E016E000E046E49
:1019B000000E036E10EC07F0000E026E190E016EA1
:1019C000000E046E000E036E10EC07F0000E026EA7
:1019D0001A0E016E000E046E000E036E10EC07F07E
:1019E000000E026E1B0E016E000E046E000E036EE2
:1019F00010EC07F0BCEC0DF01200000E146E000E9F
:101A0000136E13EF0DF013500F24116E14501020AD
:101A1000126E11C0F6FF12C0F7FF0800F550A7ECD8
:101A20000EF0134A142A13500F24116E1450102074
:101A3000126E11C0F6FF12C0F7FF0800F550000942
:101A4000D8A425EF0DF027EF0DF003EF0DF01200F5
:101A5000C30EC216025007E1030E015CD8B033EF8B
:101A60000DF035EF0DF039EF0DF00144E846FC0BB9
:101A7000C212C282C2B23FEF0DF041EF0DF03AEF59
:101A80000DF0C4CF03F0046A0350046E036AC35020
:101A90000326000E042203C001F004C002F012006D
:101AA000000E026E080E016E000E046E000E036E34
:101AB000E9EC05F0000E096E000E026E1E0E016EBE
:101AC000800E0714036E046AE9EC05F059EC0EF081
:101AD000D89007360836092A070E096472EF0DF010
:101AE00074EF0DF05CEF0DF044EC0EF01200000E00
:101AF000026E000E016E000E046E010E036E10ECFD
:101B000007F0000E026E010E016E000E046E010E53
:101B1000036E10EC07F0000E026E020E016E000E56
:101B2000046E010E036E10EC07F0C2800C0EC16E45
:101B3000AA0EC06E1200000E026E1C0E016E000E88
:101B4000046E010E036EE9EC05F0000E026E050E48
:101B5000016EE3EC0EF0000E026E1C0E016E000E24
:101B6000046E000E036EE9EC05F0000E026E050E29
:101B7000016EE3EC0EF01200000E026E1F0E016EFD
:101B8000000E046E000E036E10EC07F0000E026EE5
:101B9000080E016E000E046E000E036E10EC07F0CE
:101BA000000E026E1E0E016E000E046E000E036E1D
:101BB00010EC07F012000F501010D8A4E2EF0DF057
:101BC000E4EF0DF0E9EF0DF011500F0B800FB6ECC4
:101BD0000EF00F041010D8A4F0EF0DF0F2EF0DF09E
:101BE000F7EF0DF011500F0BC00FB6EC0EF0120016
:101BF000A40EF66E1D0EF76E000EF86E00EE3CF0B1
:101C000010EE17F00900F5CFEEFFE550E150FAE1D4
:101C100000EE53F00C0EEE6AE806FDE1000EF86EE1
:101C2000000144EF03F0BCEC0DF0000E026E0A0E52
:101C3000016E000E046E010E036E10EC07F0000E34
:101C4000026E090E016E000E046E010E036E10ECA2
:101C500007F00C0EC16E1200000E056E000E046E31
:101C600034EF0EF0044A052A0150045C0550800A46
:101C7000036E0250800A0358D8A041EF0EF043EFE4
:101C80000EF032EF0EF01200000E026E1F0E016E0B
:101C9000000E046E010E036EE9EC05F0000E026EFC
:101CA0001F0E016E000E046E000E036EE9EC05F0CF
:101CB0001200000E026E080E016E000E046E010E80
:101CC000036EE9EC05F0000E026E080E016E000EC8
:101CD000046E000E036EE9EC05F0120001500302E1
:101CE000F3CF05F0F4CF06F001500402F3500626BE
:101CF00002500302F350062605C001F006C002F0B0
:101D00001200480E016EE80E026E010E036E000E08
:101D1000046E0FC005F010C006F0076A086A3DECBB
:101D20000AF00104CB6E12000C6E0CC007F0086ABA
:101D300050EC0DF0000E026E1D0E016E0AC003F095
:101D40000BC004F0E9EC05F09BEC0DF012000E6EF8
:101D5000000E0B6E010E0A6E0E5079EC0CF0000EA8
:101D6000026E500E016EE3EC0EF012000E6E000ECD
:101D70000B6E000E0A6E0E5079EC0CF0000E026E27
:101D8000020E016E2CEC0EF012009492030ECA1299
:101D9000CA840C0EBA6E000E106E640E0F6E81ECCB
:101DA0000EF012000000DC05B80B941170174C1DEA
:0B1DB00028230429000103070F2FFF68
:0C1DBC0057C001F058C002F012001200E5
:020000040020DA
:08000000FFFFFFFFFFFFFFFF00
:020000040030CA
:0E000000FF027100FF8380FF0FC00FE00F4072
:00000001FF
